{
  "_format": "hh-sol-artifact-1",
  "contractName": "Deadline",
  "sourceName": "contracts/Deadline.sol",
  "abi": [
    {
      "inputs": [
        {
          "internalType": "address",
          "name": "benefactor",
          "type": "address"
        },
        {
          "internalType": "address",
          "name": "investor",
          "type": "address"
        }
      ],
      "name": "completeAgreement",
      "outputs": [],
      "stateMutability": "nonpayable",
      "type": "function"
    },
    {
      "inputs": [
        {
          "internalType": "address",
          "name": "benefactor",
          "type": "address"
        },
        {
          "internalType": "address",
          "name": "investor",
          "type": "address"
        },
        {
          "internalType": "uint256",
          "name": "_requestedAmount",
          "type": "uint256"
        },
        {
          "internalType": "uint256",
          "name": "_deadline",
          "type": "uint256"
        }
      ],
      "name": "createAgreement",
      "outputs": [],
      "stateMutability": "nonpayable",
      "type": "function"
    },
    {
      "inputs": [
        {
          "internalType": "address",
          "name": "benefactor",
          "type": "address"
        }
      ],
      "name": "secureFunding",
      "outputs": [],
      "stateMutability": "payable",
      "type": "function"
    },
    {
      "inputs": [
        {
          "internalType": "address",
          "name": "benefactor",
          "type": "address"
        }
      ],
      "name": "setMilestoneStatus",
      "outputs": [],
      "stateMutability": "nonpayable",
      "type": "function"
    },
    {
      "inputs": [
        {
          "internalType": "address",
          "name": "benefactor",
          "type": "address"
        },
        {
          "internalType": "address",
          "name": "investor",
          "type": "address"
        }
      ],
      "name": "viewAgreement",
      "outputs": [
        {
          "internalType": "uint256",
          "name": "requestedAmount",
          "type": "uint256"
        },
        {
          "internalType": "bool",
          "name": "isInvestmentSecured",
          "type": "bool"
        },
        {
          "internalType": "uint256",
          "name": "deadline",
          "type": "uint256"
        },
        {
          "internalType": "bool",
          "name": "milestoneComplete",
          "type": "bool"
        }
      ],
      "stateMutability": "view",
      "type": "function"
    }
  ],
  "bytecode": "0x608060405234801561001057600080fd5b50610822806100206000396000f3fe60806040526004361061004a5760003560e01c80631b4cd5211461004f5780636b972090146100785780638f94bfcc146100a1578063b4a5a400146100ca578063e4278591146100e6575b600080fd5b34801561005b57600080fd5b5061007660048036038101906100719190610674565b610126565b005b34801561008457600080fd5b5061009f600480360381019061009a91906106b0565b610294565b005b3480156100ad57600080fd5b506100c860048036038101906100c3919061064b565b6103bc565b005b6100e460048036038101906100df919061064b565b610456565b005b3480156100f257600080fd5b5061010d60048036038101906101089190610674565b610506565b60405161011d9493929190610731565b60405180910390f35b60008060008473ffffffffffffffffffffffffffffffffffffffff1673ffffffffffffffffffffffffffffffffffffffff16815260200190815260200160002060008373ffffffffffffffffffffffffffffffffffffffff1673ffffffffffffffffffffffffffffffffffffffff16815260200190815260200160002090508060010160009054906101000a900460ff1680156101d257508060030160019054906101000a900460ff16155b6101db57600080fd5b42816002015410806101fb57508060030160009054906101000a900460ff165b61020457600080fd5b60008160030160009054906101000a900460ff166102225782610224565b835b90508073ffffffffffffffffffffffffffffffffffffffff166108fc83600001549081150290604051600060405180830381858888f19350505050158015610270573d6000803e3d6000fd5b5060018260030160016101000a81548160ff02191690831515021790555050505050565b6040518060a00160405280838152602001600015158152602001828152602001600015158152602001600015158152506000808673ffffffffffffffffffffffffffffffffffffffff1673ffffffffffffffffffffffffffffffffffffffff16815260200190815260200160002060008573ffffffffffffffffffffffffffffffffffffffff1673ffffffffffffffffffffffffffffffffffffffff1681526020019081526020016000206000820151816000015560208201518160010160006101000a81548160ff0219169083151502179055506040820151816002015560608201518160030160006101000a81548160ff02191690831515021790555060808201518160030160016101000a81548160ff02191690831515021790555090505050505050565b60016000808373ffffffffffffffffffffffffffffffffffffffff1673ffffffffffffffffffffffffffffffffffffffff16815260200190815260200160002060003373ffffffffffffffffffffffffffffffffffffffff1673ffffffffffffffffffffffffffffffffffffffff16815260200190815260200160002060030160006101000a81548160ff02191690831515021790555050565b60008060008373ffffffffffffffffffffffffffffffffffffffff1673ffffffffffffffffffffffffffffffffffffffff16815260200190815260200160002060003373ffffffffffffffffffffffffffffffffffffffff1673ffffffffffffffffffffffffffffffffffffffff1681526020019081526020016000209050348160000154146104e557600080fd5b60018160010160006101000a81548160ff0219169083151502179055505050565b60008060008060008060008873ffffffffffffffffffffffffffffffffffffffff1673ffffffffffffffffffffffffffffffffffffffff16815260200190815260200160002060008773ffffffffffffffffffffffffffffffffffffffff1673ffffffffffffffffffffffffffffffffffffffff1681526020019081526020016000206040518060a0016040529081600082015481526020016001820160009054906101000a900460ff16151515158152602001600282015481526020016003820160009054906101000a900460ff161515151581526020016003820160019054906101000a900460ff1615151515815250509050806000015181602001518260400151836060015194509450945094505092959194509250565b600081359050610630816107be565b92915050565b600081359050610645816107d5565b92915050565b60006020828403121561065d57600080fd5b600061066b84828501610621565b91505092915050565b6000806040838503121561068757600080fd5b600061069585828601610621565b92505060206106a685828601610621565b9150509250929050565b600080600080608085870312156106c657600080fd5b60006106d487828801610621565b94505060206106e587828801610621565b93505060406106f687828801610636565b925050606061070787828801610636565b91505092959194509250565b61071c81610788565b82525050565b61072b816107b4565b82525050565b60006080820190506107466000830187610722565b6107536020830186610713565b6107606040830185610722565b61076d6060830184610713565b95945050505050565b600061078182610794565b9050919050565b60008115159050919050565b600073ffffffffffffffffffffffffffffffffffffffff82169050919050565b6000819050919050565b6107c781610776565b81146107d257600080fd5b50565b6107de816107b4565b81146107e957600080fd5b5056fea2646970667358221220577ac4b69ec9899fd47320999952b5de2a21cf1ff19c4357d38282eb933559ec64736f6c63430008040033",
  "linkReferences": {},
  "deployedLinkReferences": {}
}